:020000040800F2
:1000000000500020951D0008991B0008A11B000846
:10001000A31B0008A51B0008A71B00080000000088
:10002000000000000000000000000000A91B000804
:10003000AB1B000800000000AD1B0008AF1B000850
:10004000DD1D0008DD1D0008DD1D0008DD1D0008A8
:10005000DD1D0008DD1D0008DD1D0008DD1D000898
:10006000DD1D0008DD1D0008DD1D0008DD1D000888
:10007000DD1D0008DD1D0008DD1D0008DD1D000878
:10008000DD1D0008DD1D0008DD1D0008DD1D000868
:10009000DD1D0008DD1D0008DD1D0008DD1D000858
:1000A000DD1D0008DD1D0008DD1D0008DD1D000848
:1000B000DD1D0008DD1D0008DD1D0008DD1D000838
:1000C000DD1D0008DD1D0008DD1D0008DD1D000828
:1000D000DD1D0008DD1D0008DD1D0008DD1D000818
:1000E000DD1D0008DD1D0008DD1D0008000000000A
:1000F0000000000000000000000000000000000000
:0C01000000000000000000005FF808F1A3
:1001100010B5054C237833B9044B13B10448AFF341
:1001200000800123237010BDC009002000000000E2
:10013000E09C000808B5034B1BB103490348AFF32B
:10014000008008BD00000000C4090020E09C0008F9
:1001500081F0004102E000BF83F0004330B54FEA78
:1001600041044FEA430594EA050F08BF90EA020FE5
:100170001FBF54EA000C55EA020C7FEA645C7FEA78
:10018000655C00F0E2804FEA5454D4EB5555B8BF9B
:100190006D420CDD2C4480EA020281EA030382EA0C
:1001A000000083EA010180EA020281EA0303362D9E
:1001B00088BF30BD11F0004F4FEA01314FF4801C71
:1001C0004CEA113102D0404261EB410113F0004F83
:1001D0004FEA03334CEA133302D0524263EB43033A
:1001E00094EA050F00F0A780A4F10104D5F1200ED8
:1001F0000DDB02FA0EFC22FA05F2801841F1000133
:1002000003FA0EF2801843FA05F359410EE0A5F106
:1002100020050EF1200E012A03FA0EFC28BF4CF037
:10022000020C43FA05F3C01851EBE37101F00045ED
:1002300007D54FF0000EDCF1000C7EEB00006EEBFA
:100240000101B1F5801F1BD3B1F5001F0CD3490884
:100250005FEA30004FEA3C0C04F101044FEA4452DB
:1002600012F5800F80F09A80BCF1004F08BF5FEA62
:10027000500C50F1000041EB045141EA050130BD42
:100280005FEA4C0C404141EB0101013C28BFB1F554
:10029000801FE9D291F0000F04BF01460020B1FA9F
:1002A00081F308BF2033A3F10B03B3F120020CDA72
:1002B0000C3208DD02F1140CC2F10C0201FA0CF050
:1002C00021FA02F10CE002F11402D8BFC2F1200CB5
:1002D00001FA02F120FA0CFCDCBF41EA0C0190406B
:1002E000E41AA2BF01EB0451294330BD6FEA0404B4
:1002F0001F3C1CDA0C340EDC04F11404C4F120029F
:1003000020FA04F001FA02F340EA030021FA04F3B0
:1003100045EA030130BDC4F10C04C4F1200220FA07
:1003200002F001FA04F340EA0300294630BD21FA45
:1003300004F0294630BD94F0000F83F4801306BF0B
:1003400081F480110134013D4EE77FEA645C18BFFF
:100350007FEA655C29D094EA050F08BF90EA020F96
:1003600005D054EA000C04BF1946104630BD91EA8E
:10037000030F1EBF0021002030BD5FEA545C05D191
:100380004000494128BF41F0004130BD14F58004D0
:100390003CBF01F5801130BD01F0004545F0FE4144
:1003A00041F470014FF0000030BD7FEA645C1ABF79
:1003B000194610467FEA655C1CBF0B46024650EAB0
:1003C000013406BF52EA033591EA030F41F40021DC
:1003D00030BD00BF90F0000F04BF0021704730B562
:1003E0004FF4806404F132044FF000054FF0000137
:1003F00050E700BF90F0000F04BF0021704730B5F8
:100400004FF4806404F1320410F0004548BF4042CC
:100410004FF000013EE700BF42004FEAE2014FEA21
:1004200031014FEA02701FBF12F07F4393F07F4FFC
:1004300081F06051704732F07F4208BF704793F0FF
:100440007F4F04BF41F40021704730B54FF4607412
:1004500001F0004521F000411CE700BF50EA010215
:1004600008BF704730B54FF000050AE050EA0102BE
:1004700008BF704730B511F0004502D5404261EB2E
:1004800041014FF4806404F132045FEA915C3FF46F
:10049000D8AE4FF003025FEADC0C18BF03325FEA0C
:1004A000DC0C18BF033202EBDC02C2F1200300FABD
:1004B00003FC20FA02F001FA03FE40EA0E0021FAE2
:1004C00002F11444BDE600BF80F0004002E000BF2E
:1004D00081F0004142001FBF5FEA410392EA030F2F
:1004E0007FEA226C7FEA236C6AD04FEA1262D2EB79
:1004F0001363C1BFD218414048404140B8BF5B427E
:10050000192B88BF704710F0004F40F4000020F016
:100510007F4018BF404211F0004F41F4000121F02C
:100520007F4118BF494292EA030F3FD0A2F1010276
:1005300041FA03FC10EB0C00C3F1200301FA03F1B4
:1005400000F0004302D5494260EB4000B0F5000FD7
:1005500013D3B0F1807F06D340084FEA310102F196
:100560000102FE2A51D2B1F1004F40EBC25008BF48
:1005700020F0010040EA03007047490040EB000012
:10058000013A28BFB0F5000FEDD2B0FA80FCACF113
:10059000080CB2EB0C0200FA0CF0AABF00EBC25040
:1005A00052421843BCBFD0401843704792F0000F2E
:1005B00081F4000106BF80F400000132013BB5E781
:1005C0004FEA41037FEA226C18BF7FEA236C21D0F7
:1005D00092EA030F04D092F0000F08BF084670475C
:1005E00090EA010F1CBF0020704712F07F4F04D12A
:1005F000400028BF40F00040704712F100723CBF3D
:1006000000F50000704700F0004343F0FE4040F466
:10061000000070477FEA226216BF08467FEA236324
:100620000146420206BF5FEA412390EA010F40F40F
:10063000800070474FF0000304E000BF10F000435B
:1006400048BF40425FEA000C08BF704743F0964342
:1006500001464FF000001CE050EA010208BF70475D
:100660004FF000030AE000BF50EA010208BF7047E4
:1006700011F0004302D5404261EB41015FEA010CF9
:1006800002BF84460146002043F0B64308BFA3F1F1
:100690008053A3F50003BCFA8CF2083AA3EBC253D3
:1006A00010DB01FA02FC634400FA02FCC2F12002F2
:1006B000BCF1004F20FA02F243EB020008BF20F029
:1006C0000100704702F1200201FA02FCC2F120028F
:1006D00050EA4C0021FA02F243EB020008BF20EA84
:1006E000DC7070474FF0FF0C1CEAD0521EBF1CEAB2
:1006F000D15392EA0C0F93EA0C0F6FD01A4480EAA0
:10070000010C400218BF5FEA41211ED04FF0006388
:1007100043EA501043EA5111A0FB01310CF00040B4
:10072000B1F5000F3EBF490041EAD3715B0040EADA
:10073000010062F17F02FD2A1DD8B3F1004F40EBAA
:10074000C25008BF20F00100704790F0000F0CF07D
:10075000004C08BF49024CEA502040EA51207F3A41
:10076000C2BFD2F1FF0340EAC250704740F400001C
:100770004FF00003013A5DDC12F1190FDCBF00F00D
:1007800000407047C2F10002410021FA02F1C2F1BB
:10079000200200FA02FC5FEA310040F1000053EA57
:1007A0004C0308BF20EADC70704792F0000F00F0A5
:1007B000004C02BF400010F4000F013AF9D040EAAB
:1007C0000C0093F0000F01F0004C02BF490011F43F
:1007D000000F013BF9D041EA0C018FE70CEAD1533D
:1007E00092EA0C0F18BF93EA0C0F0AD030F0004CBD
:1007F00018BF31F0004CD8D180EA010000F0004071
:10080000704790F0000F17BF90F0004F084691F02E
:10081000000F91F0004F14D092EA0C0F01D1420268
:100820000FD193EA0C0F03D14B0218BF084608D131
:1008300080EA010000F0004040F0FE4040F400007B
:10084000704740F0FE4040F4400070474FF0FF0C0E
:100850001CEAD0521EBF1CEAD15392EA0C0F93EA55
:100860000C0F69D0A2EB030280EA010C49024FEAA7
:10087000402037D04FF0805343EA111143EA101360
:100880000CF000408B4238BF5B0042F17D024FF418
:10089000000C8B4224BF5B1A40EA0C00B3EB510FF3
:1008A00024BFA3EB510340EA5C00B3EB910F24BFDC
:1008B000A3EB910340EA9C00B3EBD10F24BFA3EB61
:1008C000D10340EADC001B0118BF5FEA1C1CE0D129
:1008D000FD2A3FF650AF8B4240EBC25008BF20F0DC
:1008E000010070470CF0004C4CEA50207F32C2BF30
:1008F000D2F1FF0340EAC250704740F400004FF0CD
:100900000003013A37E792F0000F00F0004C02BFFD
:10091000400010F4000F013AF9D040EA0C0093F0C7
:10092000000F01F0004C02BF490011F4000F013B21
:10093000F9D041EA0C0195E70CEAD15392EA0C0F89
:1009400008D142027FF47DAF93EA0C0F7FF470AFC1
:10095000084676E793EA0C0F04D14B023FF44CAF04
:1009600008466EE730F0004C18BF31F0004CCAD199
:1009700030F000427FF45CAF31F000437FF43CAFD5
:100980005FE700BF42000ED2B2F1FE4F0BD34FF033
:100990009E03B3EB126209D44FEA002343F00043F5
:1009A00023FA02F070474FF00000704712F1610F18
:1009B00001D1420202D14FF0FF3070474FF00000EA
:1009C000704700BF844641EA000313F0030349D196
:1009D000403A23D30B6803604B6843608B688360A5
:1009E000CB68C3600B6903614B6943618B698361A9
:1009F000CB69C3610B6A03624B6A43628B6A836291
:100A0000CB6AC3620B6B03634B6B43638B6B836378
:100A1000CB6BC36340304031403ADBD230320BD332
:100A20000B6803604B6843608B688360CB68C3606E
:100A300010301031103AF3D20C3205D351F8043B88
:100A400040F8043B043AF9D2043208D0D2071CBF64
:100A500011F8013B00F8013B01D30B88038060468D
:100A6000704700BF082A13D38B07B1D010F00303DF
:100A7000AED0C3F10403D21ADB071CBF11F8013B4F
:100A800000F8013BA4D331F8023B20F8023B9FE77A
:100A9000043AD9D3013A11F8013B00F8013BF9D2ED
:100AA0000B7803704B7843708B7883706046704787
:100AB00070B54FF0FF0C4CF4E06C1CEA11541DBFF4
:100AC0001CEA135594EA0C0F95EA0C0F00F0DEF8BF
:100AD0002C4481EA030621EA4C5123EA4C5350EAA4
:100AE000013518BF52EA033541F4801143F48013F5
:100AF00038D0A0FB02CE4FF00005E1FB02E506F086
:100B00000042E0FB03E54FF00006E1FB03569CF0DA
:100B1000000F18BF4EF0010EA4F1FF04B6F5007FE0
:100B200064F5407404D25FEA4E0E6D4146EB060652
:100B300042EAC62141EA55514FEAC52040EA5E50DB
:100B40004FEACE2EB4F1FD0C88BFBCF5E06F1ED885
:100B5000BEF1004F08BF5FEA500E50F1000041EBBC
:100B6000045170BD06F0004646EA010140EA020069
:100B700081EA0301B4EB5C04C2BFD4EB0C0541EA8B
:100B8000045170BD41F480114FF0000E013C00F3A0
:100B9000AB8014F1360FDEBF002001F0004170BDC4
:100BA000C4F10004203C35DA0C341BDC04F11404DD
:100BB000C4F1200500FA05F320FA04F001FA05F269
:100BC00040EA020001F0004221F0004110EBD37036
:100BD00021FA04F642EB06015EEA430E08BF20EA62
:100BE000D37070BDC4F10C04C4F1200500FA04F305
:100BF00020FA05F001FA04F240EA020001F0004197
:100C000010EBD37041F100015EEA430E08BF20EA09
:100C1000D37070BDC4F1200500FA05F24EEA020E51
:100C200020FA04F301FA05F243EA020321FA04F080
:100C300001F0004121FA04F220EA020000EBD37037
:100C40005EEA430E08BF20EAD37070BD94F0000F37
:100C50000FD101F00046400041EB010111F4801F6B
:100C600008BF013CF7D041EA060195F0000F18BF1C
:100C7000704703F00046520043EB030313F4801F58
:100C800008BF013DF7D043EA0603704794EA0C0F12
:100C90000CEA135518BF95EA0C0F0CD050EA410628
:100CA00018BF52EA4306D1D181EA030101F00041A5
:100CB0004FF0000070BD50EA410606BF10461946CD
:100CC00052EA430619D094EA0C0F02D150EA0136D9
:100CD00013D195EA0C0F05D152EA03361CBF10461A
:100CE00019460AD181EA030101F0004141F0FE41B9
:100CF00041F470014FF0000070BD41F0FE4141F43D
:100D0000780170BD70B54FF0FF0C4CF4E06C1CEA3C
:100D100011541DBF1CEA135594EA0C0F95EA0C0FF1
:100D200000F0A7F8A4EB050481EA030E52EA0335AC
:100D30004FEA013100F088804FEA03334FF08055CD
:100D400045EA131343EA12634FEA022245EA1115FA
:100D500045EA10654FEA00260EF000419D4208BFAB
:100D6000964244F1FD0404F5407402D25B084FEA58
:100D70003202B61A65EB03055B084FEA32024FF404
:100D800080104FF4002CB6EB020E75EB030E22BF61
:100D9000B61A754640EA0C005B084FEA3202B6EB21
:100DA000020E75EB030E22BFB61A754640EA5C00D0
:100DB0005B084FEA3202B6EB020E75EB030E22BF60
:100DC000B61A754640EA9C005B084FEA3202B6EB61
:100DD000020E75EB030E22BFB61A754640EADC0020
:100DE00055EA060E18D04FEA051545EA16754FEA82
:100DF00006164FEAC30343EA52734FEAC2025FEAA0
:100E00001C1CC0D111F4801F0BD141EA00014FF02E
:100E100000004FF0004CB6E711F4801F04BF0143FF
:100E20000020B4F1FD0C88BFBCF5E06F3FF6AFAE1B
:100E3000B5EB030C04BFB6EB020C5FEA500C50F1AB
:100E4000000041EB045170BD0EF0004E4EEA11312E
:100E500014EB5C04C2BFD4EB0C0541EA045170BD35
:100E600041F480114FF0000E013C90E645EA060E79
:100E70008DE60CEA135594EA0C0F08BF95EA0C0FA7
:100E80003FF43BAF94EA0C0F0AD150EA01347FF4EF
:100E900034AF95EA0C0F7FF425AF104619462CE7C6
:100EA00095EA0C0F06D152EA03353FF4FDAE104629
:100EB000194622E750EA410618BF52EA43067FF47A
:100EC000C5AE50EA41047FF40DAF52EA43057FF40A
:100ED000EBAE12E74FF0FF3C06E000BF4FF0010C15
:100EE00002E000BF4FF0010C4DF804CD4FEA410C79
:100EF0007FEA6C5C4FEA430C18BF7FEA6C5C1BD046
:100F000001B050EA410C0CBF52EA430C91EA030FC6
:100F100002BF90EA020F0020704710F1000F91EA23
:100F2000030F58BF994208BF90422CBFD8176FEAF1
:100F3000E37040F0010070474FEA410C7FEA6C5CBF
:100F400002D150EA013C07D14FEA430C7FEA6C5CC6
:100F5000D6D152EA033CD3D05DF8040B704700BFF2
:100F60008446104662468C461946634600E000BF40
:100F700001B5FFF7B7FF002848BF10F1000F01BD12
:100F80004DF808EDFFF7F4FF0CBF012000205DF8DD
:100F900008FB00BF4DF808EDFFF7EAFF34BF012062
:100FA00000205DF808FB00BF4DF808EDFFF7E0FFFB
:100FB00094BF012000205DF808FB00BF4DF808ED4C
:100FC000FFF7CEFF94BF012000205DF808FB00BFB3
:100FD0004DF808EDFFF7C4FF34BF012000205DF895
:100FE00008FB00BF4FEA410C7FEA6C5C02D150EA7B
:100FF000013C0AD14FEA430C7FEA6C5C02D152EA11
:10100000033C02D14FF0000070474FF001007047E1
:101010004FEA410212F5001215D211D56FF4787320
:10102000B3EB625212D94FEAC12343F0004343EAC3
:10103000505311F0004F23FA02F018BF404270479E
:101040004FF00000704750EA013005D111F0004028
:1010500008BF6FF0004070474FF00000704700BFBE
:1010600053B94AB9002908BF00281CBF4FF0FF310F
:101070004FF0FF3000F076B9ADF1080C6DE904CE09
:1010800000F006F8DDF804E0DDE9022304B0704763
:101090002DE9F047089E0D4604468846002B4DD1A9
:1010A0008A42944668D9B2FA82F252B101FA02F346
:1010B000C2F1200120FA01F10CFA02FC41EA030816
:1010C00094404FEA1C41B8FBF1F71FFA8CFE01FB7C
:1010D000178807FB0EF0230C43EA084398420AD90D
:1010E0001CEB030307F1FF3580F01E81984240F2AC
:1010F0001B81023F63441B1AB3FBF1F001FB103369
:1011000000FB0EFEA4B244EA0344A6450AD91CEB38
:10111000040400F1FF3380F00981A64540F2068106
:10112000644402380021A4EB0E0440EA07401EB1DB
:101130000023D440C6E90043BDE8F0878B4208D9BC
:10114000002E00F0EE800021C6E900050846BDE84B
:10115000F087B3FA83F100294AD1AB4202D382422D
:1011600000F2FC80841A65EB030301209846002EF0
:10117000E2D0C6E90048DFE702B9FFDEB2FA82F248
:10118000002A40F09180A1EB0C0001214FEA1C479E
:101190001FFA8CFEB0FBF7F307FB1300250C45EAA2
:1011A00000450EFB03F0A84208D91CEB050503F12E
:1011B000FF3802D2A84200F2CE8043462D1AB5FB7A
:1011C000F7F007FB10550EFB00FEA4B244EA0544FD
:1011D000A64508D91CEB040400F1FF3502D2A64550
:1011E00000F2B6802846A4EB0E0440EA03409EE7D6
:1011F000C1F120078B4022FA07FC4CEA030C25FAC8
:1012000007FA4FEA1C49BAFBF9F820FA07F309FB81
:1012100018AA8D401FFA8CFE1D4300FA01F308FB4B
:101220000EF02C0C44EA0A44A04202FA01F20BD957
:101230001CEB040408F1FF3A80F08880A04240F2E1
:101240008580A8F102086444241AB4FBF9F009FB74
:10125000104400FB0EFEADB245EA0444A64508D991
:101260001CEB040400F1FF356CD2A6456AD90238A4
:10127000644440EA0840A0FB0295A4EB0E04AC4293
:10128000C846AE4656D353D0002E69D0B3EB080201
:1012900064EB0E0422FA01F304FA07F71F43CC4073
:1012A000C6E90074002147E70CFA02FCC2F12001F4
:1012B00025FA01F34FEA1C4720FA01F195400D434E
:1012C000B3FBF7F107FB11331FFA8CFE280C40EA41
:1012D000034001FB0EF3834204FA02F408D91CEB2D
:1012E000000001F1FF382FD283422DD9023960442A
:1012F000C01AB0FBF7F307FB1300ADB245EA004597
:1013000003FB0EF0A84208D91CEB050503F1FF38DA
:1013100016D2A84214D9023B6544281A43EA014177
:1013200038E73146304607E72F46E4E61846F9E647
:101330004B45A9D2B9EB020865EB0C0E0138A3E7C7
:101340004346EAE7284694E74146D1E7D0467BE7A3
:101350006444023847E7023B65442FE7084606E746
:101360003146E9E6704700BF00B583B071B9094B5B
:1013700000221A70074A50700A2300930223782132
:10138000054801F041FC03B05DF804FB014B40222D
:101390001A70EFE7DC0D00201C0E002008B50021BC
:1013A000AE20FFF7E1FF00212020FFF7DDFF002145
:1013B0001020FFF7D9FF0021B020FFF7D5FF002153
:1013C000C820FFF7D1FF00210846FFF7CDFF00211D
:1013D0001020FFF7C9FF00214020FFF7C5FF0021C3
:1013E0008120FFF7C1FF0021FF20FFF7BDFF002193
:1013F000A120FFF7B9FF0021A620FFF7B5FF0021CC
:10140000A820FFF7B1FF00213F20FFF7ADFF00212B
:10141000A420FFF7A9FF0021D320FFF7A5FF00219B
:101420000846FFF7A1FF0021D520FFF79DFF00210F
:10143000F020FFF799FF0021D920FFF795FF002149
:101440002220FFF791FF0021DA20FFF78DFF002116
:101450001220FFF789FF0021DB20FFF785FF002125
:101460002020FFF781FF00218D20FFF77DFF002165
:101470001420FFF779FF0021AF20FFF775FF08BDAB
:101480000246002022E0144901EBC3014FF0FF0C9B
:1014900001F800C00133DBB213F0800F14D1012A30
:1014A000F1D03AB90C4901EBC3014FF0000C01F83F
:1014B00000C0EFE7084901EBC30111F800C06FEA73
:1014C0000C0C01F800C0E5E70130C0B2072801D8D4
:1014D0000023E1E7704700BFDC09002010B5044697
:1014E000A1F150000021C0B2FFF73EFF200900210A
:1014F00040F01000FFF738FF002104F00F00FFF765
:1015000033FF10BD002821DB00291FDB3F291DDC34
:101510000B4600291BDBC3F3C703D1F1000C01F01C
:1015200007010CF0070C58BFCCF10001C9B2012A29
:101530000FD0022A19D04FF0010C0CFA01FC114A0D
:1015400002EBC000C15C21EA0C01C1547047CB1D05
:10155000E1E74FF0010C0CFA01FC0A4A02EBC00073
:10156000C15C41EA0C01C15470474FF0010C0CFA08
:1015700001FC044A02EBC000C15C81EA0C01C154C9
:10158000704700BFDC0900202DE9F04701EB410165
:101590004F00FFB200EB40004FEA80085FFA88F886
:1015A000203A5FFA82FA44464FF0000920E0002218
:1015B00061B278B2FFF7A6FF6D00EDB20134E4B27C
:1015C000A4EB08030C2B0CD00136F6B2072E0BD877
:1015D00015F0800FEBD0012261B278B2FFF792FFD5
:1015E000EAE70137FFB2444609F101095FFA89F9D8
:1015F000B9F10B0F08D80AEB4A03044A02EB830344
:1016000013F809500026E1E7BDE8F087F8A00008CC
:1016100038B500250DE00B4B03EBC4030121585DE9
:10162000FFF7A2FE0134E4B214F0800FF3D00135CD
:10163000EDB2072D05D829460020FFF74FFF002403
:10164000F2E738BDDC090020F8B506460C4617461F
:10165000002501E00135EDB27A5D5AB121463046F0
:10166000FFF792FF0134E4B2142CF3D90136F6B23D
:101670000024EFE7FFF7CCFFF8BD00002DE9F041B3
:101680000020FFF7FDFE002726E03919002249B2AD
:101690003046FFF737FF6D00EDB20134E4B2072C9E
:1016A00009D815F0800FF0D03919012249B230461F
:1016B000FFF728FFEFE708F101085FFA88F84FFA13
:1016C00088F6002E06DBFB08084A02EBC802D55C50
:1016D0000024E4E70837FFB23F2F02D84FF000089C
:1016E000EDE7FFF795FFBDE8F08100BFF89C00082B
:1016F00000B585B000230193029303931148124A69
:1017000002608360037303754FF46022C26143601B
:101710000123036100F00EFE68B908230193012341
:1017200002930023039301A9064800F07DFC28B929
:1017300005B05DF804FB00F043F9EEE700F040F976
:10174000F6E700BFE00D00200024014000B587B09F
:10175000002302930393049305930268114B9A426A
:1017600002D007B05DF804FB03F56C439A6942F4BC
:1017700000729A619A6902F400720092009A9A6962
:1017800042F008029A619B6903F008030193019BF0
:10179000012302930323039302A9034800F0ACFE44
:1017A000DFE700BF00240140000C014010B50446F3
:1017B0000C4B196001225A6000229A60194600F011
:1017C00033FC58B9204600F015FD0A21204600F0F0
:1017D00065FB204600F024FC80B210BD00F0F0F85C
:1017E000F0E700BF100E002038B500252C4606E0BB
:1017F00011210948FFF7DAFF05440134E4B2C72C90
:10180000F6D92846FEF716FF01460448FFF71EF8F2
:10181000034B186038BD00BFE00D0020010070438D
:101820000000002008B508210648FFF7BFFFFEF7BB
:1018300001FF054B1968FEF755FF0449FFF706F84D
:1018400008BD00BFE00D00200000002033335340EE
:10185000F0B589B00023049305930693079303F131
:10186000804303F504339A6942F010029A619A6941
:1018700002F010020092009A9A6942F020029A61E6
:101880009A6902F020020192019A9A6942F00402D8
:101890009A619A6902F004020292029A9A6942F0ED
:1018A00008029A619B6903F008030393039B124F9C
:1018B00001224FF40051384600F030FF0F4D012255
:1018C000C021284600F02AFF4FF40053049301245E
:1018D000059406940226079604A9384600F00CFEEB
:1018E000C023049305940694079604A9284600F0A3
:1018F00003FE09B0F0BD00BF001001400008014028
:1019000008B50B480B4B03600B4B4360002383600F
:10191000C3604FF48042026143618361C36103622B
:1019200001F094F800B908BD00F04AF8FBE700BFE9
:101930001C0E002000540040801A060010B586B02E
:10194000002302930393049305930268114B9A4278
:1019500001D006B010BD104CA36943F00803A36189
:10196000A36903F008030093009BC0230293122392
:1019700003930323059302A9084800F0BDFDE36922
:1019800043F40013E361E36903F400130193019B43
:10199000DFE700BF0054004000100240000C01408F
:1019A00010B582B00C46FEF737FDCDE90001034AC1
:1019B0000521204602F0E6F902B010BD6CA5000832
:1019C00072B6FEE700B595B0282200210DEB0200AB
:1019D00002F086F900230593069307930893099371
:1019E000019302930393049301220A924FF48033EC
:1019F0000B930E920222119212934FF4E013139361
:101A00000AA801F0D3F9D8B90F2305930221069152
:101A1000002307934FF480620892099305A801F010
:101A2000FDFB78B9022301934FF40043039301A80F
:101A300001F0E2FC40B901F0C1FB15B05DF804FB18
:101A4000FFF7BEFFFFF7BCFFFFF7BAFF08B500F0D6
:101A5000EDF9FFF7B7FFFFF7FBFEFFF749FEFFF7D2
:101A60004FFF00F041F92F4C204601F06FFE00219E
:101A7000204602F067F8FFF7B7FEFFF78FFCFFF78D
:101A8000FDFD4FF4FA6000F0F5F90020FFF7F8FCD7
:101A9000FFF7C8FE244D28602449FEF723FE244C9E
:101AA00020600020FFF7ECFC224A00210846FFF7E7
:101AB000CBFD214A00210220FFF7C6FD1F4E314613
:101AC0002068FFF76DFF324600210120FFF7BCFDC3
:101AD0001B4A04210120FFF7B7FD24682146134863
:101AE000FEF7F6FC01462046FEF7B0FE154B1860E7
:101AF000154C2146FFF754FF224600210320FFF733
:101B0000A3FD124A06210320FFF79EFD1049286815
:101B1000FEF7E8FD034B1C68FEF734FF80B26063FC
:101B2000B6E700BF8C0E0020700E00203333534008
:101B3000800E002074A500088CA50008840E0020EB
:101B4000A0A500087C0E0020740E0020A4A50008AB
:101B500000C0794482B00E4B9A6942F001029A614A
:101B60009A6902F001020092009ADA6942F080520A
:101B7000DA61DB6903F080530193019B054A5368E6
:101B800023F0E06343F00073536002B0704700BF7E
:101B9000001002400000014008B501F01DFCFEE706
:101BA000FEE7FEE7FEE7FEE770477047704708B5BF
:101BB00000F04EF908BD0120704708B502F066F844
:101BC000162303604FF0FF3008BD08B54FF0FF311A
:101BD000FFF7F3FFFEE770B50C461646002506E05A
:101BE000AFF30080214601F8010B01350C46B542E8
:101BF000F6DB304670BD70B50C461646002504E095
:101C000014F8010BAFF300800135B542F8DB304624
:101C100070BD4FF0FF3070474FF400534B60002011
:101C200070470120704700207047000010B5034640
:101C30000C4A0D490D48006840B10C480068034447
:101C4000521A934206D8094A136010BD0748084C3F
:101C50000460F2E702F01AF80C2303604FF0FF3043
:101C6000F3E700BF0050002000040000880E0020B1
:101C7000200F002070470368B3F1804F00D07047F9
:101C800082B003F50433DA6942F00102DA61DB69FC
:101C900003F001030193019B02B0704700B587B0C8
:101CA000002302930393049305930368B3F1804FD9
:101CB00002D007B05DF804FB03F504339A6942F0E3
:101CC00004029A619B6903F004030193019B0123C1
:101CD000029302220392059302A9024800F00CFC31
:101CE000E7E700BF0008014000B58FB000230A936A
:101CF0000B930C930D930893099301930293039311
:101D0000049305930693079321484FF080420260A5
:101D100047224260836040F2E732C2600361836120
:101D200001F07EFD20BB4FF480530A930AA91848A6
:101D300001F07AFEF8B9164801F09EFDF0B90023D3
:101D40000893099308A9124801F06AFFC8B96023F3
:101D50000193002202920392059201A90C4801F01E
:101D6000E9FD88B90A48FFF799FF0FB05DF804FB59
:101D7000FFF726FED7E7FFF723FEDCE7FFF720FE9D
:101D8000DDE7FFF71DFEE2E7FFF71AFEEAE700BF17
:101D90008C0E0020FFF76EFF0B480C490C4A002305
:101DA00002E0D458C4500433C4188C42F9D3094A11
:101DB000094C002301E013600432A242FBD301F07E
:101DC0006BFFFFF743FE704700000020C0090020B2
:101DD000FCA90008C0090020200F0020FEE7000039
:101DE00010B504460E4B18784FF47A73B3FBF0F33A
:101DF0000C4A1068B0FBF3F000F06AFB68B90F2CD6
:101E000001D901200AE0002221464FF0FF3000F006
:101E100027FB054B1C60002000E0012010BD00BF27
:101E200008000020040000200C00002008B5074A2C
:101E3000136843F010031360032000F0FFFA0F2033
:101E4000FFF7CEFFFFF786FE002008BD002002400E
:101E5000034A1168034B1B780B441360704700BFA3
:101E6000D40E002008000020014B1868704700BF06
:101E7000D40E002038B50446FFF7F6FF0546B4F14E
:101E8000FF3F02D0044B1B781C44FFF7EDFF401BC3
:101E9000A042FAD338BD00BF08000020F0B583B0DF
:101EA00005460C4600230193FFF7DEFF2B689A6876
:101EB00012F4807F23D107465A6812F4807F03D141
:101EC000DB6A13F4700F29D0504B1E68022001F01A
:101ED0001FFBB6FBF0F62B6819694D4A114236D14B
:101EE000D96802F15C42114231D11969494A114263
:101EF00040D1DA68484B1A423ED0292041E0AB6A13
:101F000043F02003AB62002385F82430012003B0A6
:101F1000F0BD2B681B6813F0020F0FD02B681B68F5
:101F200013F0020F4FD1B4F1FF3FF7D0002CF0D0E7
:101F3000FFF79AFFC31BA342F0D9EAE7AB6A43F06D
:101F40000403AB62002385F824300320DFE719691E
:101F5000304A114204D1D96802F16E4211420DD0CB
:101F600019692E4A0A405AB9DA682C4B13405BB102
:101F7000FC2006E0292004E0142002E0542000E0C8
:101F8000FC2000FB06F607E05420FAE7019BB34271
:101F900010D3019B01330193019BB34213D2B4F1DF
:101FA000FF3FF6D0002CF1D0FFF75EFFC01BA04230
:101FB000EFD9EBE7AB6A43F00403AB62002385F88B
:101FC00024300320A3E72B686FF012021A60AB6A7B
:101FD00043F40073AB622B689B6803F46023B3F592
:101FE000602F01D0002092E7287B60B9AB6A23F410
:101FF0008073AB62AB6A13F4805F88D1AB6A43F045
:102000000103AB6283E7002081E700BF04000020EA
:10201000244992249224491292244900499224008E
:102020000368D86C7047000030B482B0002201927F
:1020300090F82420012A00F091800346012280F8C4
:1020400024204A68062A2DD80468606B02EB8202BD
:10205000053A4FF01F0C0CFA02FC20EA0C000D6848
:1020600005FA02F2024362630A68092A3AD91C6837
:10207000E06802EB42021E3A4FF0070C0CFA02FC39
:1020800020EA0C008D6805FA02F20243E2600A6859
:10209000103A012A36D90020002283F8242002B009
:1020A00030BC70470C2A0ED80568286B02EB820200
:1020B000233A1F24944020EA04000C6804FA02F238
:1020C00002432A63D0E70568E86A02EB8202413ADC
:1020D0001F24944020EA04000C6804FA02F2024330
:1020E000EA62C1E71C68206902EB42024FF0070C6C
:1020F0000CFA02FC20EA0C008D6805FA02F2024399
:102100002261C4E71A681648824205D09A6A42F0F2
:1021100020029A620120BFE7906810F4000F1BD1E3
:10212000906840F4000090600A68102A01D00020F6
:10213000B2E70C4A12680C49A1FB0212920C02EBA6
:1021400082025200019202E0019A013A0192019A40
:10215000002AF9D100209FE700209DE702209EE79A
:10216000002401400400002083DE1B4330B583B00F
:102170000023019303689A6812F0010F33D10446DB
:102180009A6842F001029A60184B1B68184AA2FB39
:1021900003239B0C019302E0019B013B0193019BF4
:1021A000002BF9D1FFF760FE054623689B6813F00A
:1021B000010F16D1FFF758FE431B022BF5D92368F8
:1021C0009B6813F0010FF0D1A36A43F01003A362E0
:1021D000E36A43F00103E362002384F82430012022
:1021E00002E0002000E0002003B030BD0400002029
:1021F00083DE1B4390F82430012B68D010B50446D1
:10220000012380F82430FFF7B1FF00285BD1A36AD7
:1022100023F4407323F0010343F48073A362236823
:102220002C4A934227D0A26A22F48012A2625A68F2
:1022300012F4806F05D0A26A22F4405242F4805218
:10224000A262A26A12F4805F2BD0E26A22F0060238
:10225000E262002284F824206FF002021A602368F0
:102260009A6802F46022B2F5602F1DD09A6842F499
:1022700080129A602AE0A2F58062526812F4702FF0
:10228000D1D0A26A42F48012A262134A526812F4B8
:10229000806FD6D0A26A22F4405242F48052A262E9
:1022A000CFE70022E262D4E70A4A934204D09A6858
:1022B00042F4A0029A6009E0A2F58062526812F42A
:1022C000702FD3D1F3E7002384F8243010BD02200F
:1022D000704700BF002801400024014038B5036862
:1022E0009A6812F0010F01D1002038BD04469A68A7
:1022F00022F001029A60FFF7B7FD054623689B684C
:1023000013F0010F13D0FFF7AFFD431B022BF5D9DC
:1023100023689B6813F0010FF0D0A36A43F0100309
:10232000A362E36A43F00103E3620120DDE70020DA
:10233000DBE7000000287BD070B50446836A002BE1
:102340004DD02046FFF7CAFFA36A13F0100369D1EE
:10235000002867D1A26A22F4885222F0020242F0D9
:102360000202A2626268E1690A43217B42EA4102F9
:10237000A568B5F5807F02D0012D36D01D46267D9B
:10238000012E35D02668716821F4694129437160B6
:102390002568AE68274931401143A960A168B1F5AD
:1023A000807F01D0012902D12369013B1B052568EB
:1023B000E96A21F470010B43EB62236899681E4BB4
:1023C0000B409A4225D0A36A23F0120343F0100376
:1023D000A362E36A43F00103E362012027E0C362E2
:1023E00080F82430FFF7B2F9ABE74FF48075C6E709
:1023F00031B9A169013945EA413141F40065C1E7CC
:10240000A16A41F02001A162E16A41F00101E162AB
:10241000B8E70023E362A36A23F0030343F0010358
:10242000A36204E0A36A43F01003A362012070BD1D
:1024300001207047FDF7E1FFFE0E1FFF074AD3683A
:1024400023F4E0631B041B0C000200F4E060034370
:1024500043F0BF6343F40033D360704700ED00E006
:1024600000B5194BDB68C3F30223C3F1070CBCF1C1
:10247000040F28BF4FF0040C03F1040EBEF1060F49
:1024800018D9033B4FF0FF3E0EFA0CFC21EA0C0179
:1024900099400EFA03F322EA0303194300280BDBE9
:1024A0000901C9B200F1604000F5614080F80013F5
:1024B0005DF804FB0023E5E700F00F000901C9B255
:1024C000024B1954F4E700BF00ED00E014ED00E00A
:1024D0000138B0F1807F0BD24FF0E0235861054AFC
:1024E000F02182F823100020986107221A617047BA
:1024F0000120704700ED00E070B582B00024A446D2
:10250000A6E0804DAA4210D007D97F4DAA420CD038
:1025100005F58035AA4208D013E0A5F58015AA423A
:1025200003D005F57025AA4207D18A68002A58D041
:10253000012A51D04361082403E0A5F58015AA4281
:10254000F3D0BEF1FF0F4ED80646BEF1FF0F4CD8B8
:102550004FEA8C0233680F25954023EA050304FAFD
:1025600002F2134333604B6813F0805F6ED0674B09
:102570009A6942F001029A619B6903F00103019399
:10258000019B4FEA9C02951C614B53F825600CF0AF
:1025900003039D000F23AB4026EA03065D4B9842E0
:1025A00029D003F58063984200F08E8003F58063A4
:1025B000984200F08B8003F58063984219D0042381
:1025C0001AE0CC68BDE7CC680434BAE7CC680834BC
:1025D000B7E7CC680C34B4E703610824B1E7002402
:1025E000AFE70424ADE7061DAFE7ACF108029200A7
:1025F000B0E7032300E00023AB4033430232444DF5
:1026000045F822304B6813F4801F61D0424A93682A
:1026100043EA0E0393604B6813F4001F5ED03E4AFA
:10262000D36843EA0E03D3604B6813F4003F5BD0DA
:10263000394A536843EA0E0353604B6813F4803FF2
:1026400058D0354A136843EA0E0313600CF1010CAD
:102650000A6832FA0CF353D0012303FA0CF302EAAE
:10266000030E33EA0202F1D14A68122A3FF649AF5B
:10267000122A3FF666AF01A555F822F02B25000877
:10268000C3250008CD250008DF25000843250008E4
:10269000432500084325000843250008432500087A
:1026A000432500084325000843250008432500086A
:1026B000432500084325000843250008432500085A
:1026C000C7250008D3250008012395E7022393E7D7
:1026D000114A936823EA0E0393609CE70E4AD3687D
:1026E00023EA0E03D3609FE70B4A536823EA0E03E5
:1026F0005360A2E7084A136823EA0E031360A5E7B4
:1027000002B070BD00002210000031100010024025
:102710000000014000080140000401400AB10161CD
:10272000704709040161704703685A6912F4806FA9
:1027300001D1002070476FF480625A610023036367
:10274000202280F83D2080F83E30026C42F00402E6
:10275000026480F83C30012070472DE9F0410646C4
:102760000C46174698463BE0FFF77EFB069BC01AD7
:10277000404502D8B8F1000F32D1012D18D033688E
:102780009B6924EA03039BB2B3FA83F35B099F427C
:1027900026D100233363202286F83D2086F83E3080
:1027A000326C42F02002326486F83C30012027E08F
:1027B00033685B6924EA03039BB2B3FA83F35B09D2
:1027C000E5E733685B6924EA030C1FFA8CFCBCFA6A
:1027D0008CFC4FEA5C1C674511D1B8F1FF3FC3D1B7
:1027E000C4F30745012DECD033689B6924EA030C40
:1027F0001FFA8CFCBCFA8CFC4FEA5C1CEBE7002057
:10280000BDE8F0812DE9F84305460E46904699460D
:1028100053E01A6842F400721A602B686FF4806209
:102820005A6100232B63202285F83D2085F83E3035
:102830002A6C42F004022A6485F83C3001204AE008
:10284000FFF712FBA0EB0900404502D8B8F1000FDA
:1028500033D1012F17D02B689B6926EA03039BB263
:10286000003B18BF012343B300232B63202285F8CC
:102870003D2085F83E302A6C42F020022A6485F81B
:102880003C30012027E02B685B6926EA03039BB2FA
:10289000003B18BF0123E6E72B689C6926EA040485
:1028A000A4B2003C18BF0124A4B12B685A6912F4E9
:1028B000806FAED1B8F1FF3FC2D1C6F30747012FF9
:1028C000EAD12B685C6926EA0404A4B2003C18BF74
:1028D0000124E9E70020BDE8F8830000F0B583B0EB
:1028E00004460D4616461F46C36A082B0DD0012B21
:1028F0000BD013F5803F08D0036B122B0AD102686E
:10290000136843F48073136004E02268136843F48F
:10291000807313600097334600224FF00111204668
:10292000FFF71BFF80B92369B3F5804F16D12368E9
:1029300005F0FE051D613B46324613492046FFF770
:1029400061FFF8B903B0F0BD23681B6813F4807F02
:1029500002D04FF4007323640320F3E7EB112268E5
:1029600003F0060343F0F00313613B463246074988
:102970002046FFF747FF18B92368EDB21D61DAE77B
:102980000120DFE70120DDE702000100080001006F
:1029900070B504460D46164623685B6913F0800F38
:1029A00021D12046FFF7C0FEF8B9B5F1FF3FF3D0C3
:1029B000FFF75AFA801BA84201D8002DECD12368FA
:1029C0005B6913F0800FE7D100232363202284F892
:1029D0003D2084F83E30226C42F02002226484F8CC
:1029E0003C30012000E0002070BD0120FCE770B504
:1029F00004460D46164623685B6913F0040F21D187
:102A00002046FFF791FEF8B9B5F1FF3FF3D0FFF78D
:102A10002BFA801BA84201D8002DECD123685B69FA
:102A200013F0040FE7D100232363202284F83D2014
:102A300084F83E30226C42F02002226484F83C305C
:102A4000012000E0002070BD0120FCE7002800F01C
:102A5000CC8070B5044690F83D30002B77D024230D
:102A600084F83D302268136823F001031360226864
:102A7000136843F4004313602268136823F400438F
:102A8000136000F087FC62685A4B9A4264D85A4B34
:102A900098428CBF00230123002B40F0A8805749A7
:102AA000A1FB00318B0C25686A6822F03F0242EAE4
:102AB00091426A6021680A6A22F03F0266684D4DC1
:102AC000AE424FD8013313430B622168CA6922F426
:102AD0004F4222F0FF026668464B9E424CD8431E8E
:102AE0007600B3FBF6F3013340F6FC70034278D076
:102AF000C3F30B031343CB6121680B6823F0C003BE
:102B0000E269206A024313430B6021688B6823F457
:102B1000034323F0FF032269E068024313438B6001
:102B20002168CB6823F0FF036269A0690243134365
:102B3000CB602268136843F0010313600020206417
:102B4000202384F83D30206384F83E0070BD80F877
:102B50003C30FEF7F3FE82E7294B98428CBF0023FE
:102B6000012399E74FF4967505FB03F3254DA5FB6B
:102B700003539B090133A6E7A368BBB9451E06EBC7
:102B8000460CB5FBFCF50135C5F30B05B5FA85F52B
:102B90006D0945BBC3B9013806EB4603B0FBF3F33F
:102BA0000133C3F30B0343F40043A3E7451E06EBD5
:102BB000860C0CEB8C0CB5FBFCF50135C5F30B0555
:102BC000B5FA85F56D09E4E7013806EB860303EBFA
:102BD0008303B0FBF3F30133C3F30B0343F440432C
:102BE00088E7042386E7012384E70120704701205A
:102BF000ACE700BFA08601007F841E0083DE1B437C
:102C0000FF083D00D34D62102DE9F04385B0044626
:102C10000F46914698460C9EFFF726F9054694F814
:102C20003D00C0B2202804D00227384605B0BDE8D8
:102C3000F0830095192301224F492046FFF78DFDAF
:102C4000002840F0928094F83C30012B00F08F80F7
:102C5000012384F83C3023681A6812F0010F03D175
:102C60001A6842F001021A602268136823F40063B4
:102C70001360212384F83D30102384F83E30002374
:102C80002364C4F82490A4F82A80638D23853B4BE9
:102C9000E3622B46324639462046FFF71FFE0746C1
:102CA000002866D10023039323685A6903929B6925
:102CB0000393039B11E0236C042B01D00127B4E79D
:102CC0002268136843F400731360F7E72A4631461D
:102CD0002046FFF78CFE00282ED1238D002B36D006
:102CE0002A4631462046FFF753FE0028E3D1626AA8
:102CF000236812781A61606A431C6362618D89B22D
:102D0000013989B26185238D013B9BB223852268FD
:102D1000516911F0040FD9D0002BD7D0437813613B
:102D2000636A01336362638D9BB2013B9BB263852F
:102D3000238D013B2385C9E7236C042B01D0012798
:102D400073E72268136843F400731360F7E722689F
:102D5000136843F400731360202384F83D3000238C
:102D600084F83E3084F83C305FE702275DE70227B5
:102D70005BE7012759E700BF020010000000FFFFDA
:102D800082B0084B1B68084AA2FB03235B0A00FBC6
:102D900003F3019300BF019B5A1E0192002BF9D14E
:102DA00002B0704704000020D34D6210002800F0EC
:102DB000F18170B582B00446036813F0010F2CD086
:102DC000994B5B6803F00C03042B1DD0964B5B689A
:102DD00003F00C03082B12D06368B3F5803F41D099
:102DE000002B55D103F1804303F504331A6822F414
:102DF00080321A601A6822F480221A6037E08A4B07
:102E00005B6813F4803FE7D0874B1B6813F4003FE7
:102E100003D06368002B00F0BF81236813F0020F1A
:102E200075D0814B5B6813F00C0F5FD07E4B5B68F5
:102E300003F00C03082B54D02369002B00F08A8088
:102E40007A4B01221A60FFF70FF80546764B1B6894
:102E500013F0020F75D1FFF707F8401B0228F5D9D0
:102E600003209EE1704A136843F480331360636863
:102E700043B3FEF7F9FF05466B4B1B6813F4003FA5
:102E8000CBD1FEF7F1FF401B6428F5D9032088E180
:102E9000B3F5A02F09D0644B1A6822F480321A606F
:102EA0001A6822F480221A60E1E703F18043A3F557
:102EB0003C331A6842F480221A601A6842F4803265
:102EC0001A60D4E7FEF7D0FF0546574B1B6813F492
:102ED000003FA2D0FEF7C8FF401B6428F5D90320AD
:102EE0005FE1514B5B6813F4803FA5D14E4B1B68EB
:102EF00013F0020F03D02369012B40F04F814A4A9F
:102F0000136823F0F803616943EAC103136023687F
:102F100013F0080F33D0A369002B5CD0434B012280
:102F2000C3F88024FEF7A0FF05463F4B5B6A13F011
:102F3000020F21D1FEF798FF401B0228F5D903208C
:102F40002FE1394A136823F0F803616943EAC103AA
:102F50001360DCE7354B00221A60FEF785FF05465B
:102F6000314B1B6813F0020FD1D0FEF77DFF401BE1
:102F70000228F5D9032014E10120FFF701FF23689F
:102F800013F0040F00F09680274BDB6913F0805F8D
:102F900034D1254BDA6942F08052DA61DB6903F003
:102FA00080530193019B0125214B1B6813F4807F03
:102FB00026D0E368012B3DD0002B53D103F1804391
:102FC00003F504331A6A22F001021A621A6A22F027
:102FD00004021A6233E0154B0022C3F88024FEF786
:102FE00043FF0546104B5B6A13F0020FC7D0FEF794
:102FF0003BFF401B0228F5D90320D2E00025D3E790
:103000000B4A136843F480731360FEF72DFF0646E6
:10301000074B1B6813F4807FCBD1FEF725FF801B85
:103020006428F5D90320BCE00010024000004242B1
:10303000007000405F4A136A43F001031362E368C3
:1030400033B3FEF711FF06465A4B1B6A13F0020F0B
:103050002FD1FEF709FF801B41F288339842F3D944
:1030600003209EE0052B09D0524B1A6A22F0010280
:103070001A621A6A22F004021A62E0E74D4B1A6AD9
:1030800042F004021A621A6A42F001021A62D6E79A
:10309000FEF7EAFE0646474B1B6A13F0020F08D004
:1030A000FEF7E2FE801B41F288339842F3D90320F9
:1030B00077E0E5B9E369002B72D03E4A526802F02E
:1030C0000C02082A56D0022B17D03B4B00221A665E
:1030D000FEF7CAFE0446374B1B6813F0007F47D04B
:1030E000FEF7C2FE001B0228F5D9032059E0314A41
:1030F000D36923F08053D361DCE72F4B00221A669B
:10310000FEF7B2FE05462B4B1B6813F0007F06D07E
:10311000FEF7AAFE401B0228F5D9032041E0236AEE
:10312000B3F5803F1AD023494B6823F47413226A05
:10313000606A024313434B601F4B01221A66FEF77D
:1031400093FE04461B4B1B6813F0007F0ED1FEF765
:103150008BFE001B0228F5D9032022E0154A536894
:1031600023F40033A1680B435360DCE7002018E030
:10317000002016E0012B16D00E4B5B6803F4803163
:10318000226A914211D103F47013626A93420ED104
:10319000002006E001207047012002E0012000E04D
:1031A000002002B070BD0120FBE70120F9E70120FB
:1031B000F7E700BF0010024000004242014B01222D
:1031C000DA647047000042420F4B5B6803F00C0268
:1031D000082A01D00D487047C3F383420C49885C2C
:1031E00013F4803F0BD0084B5B68C3F34043094A9C
:1031F000D35C064A02FB00F0B0FBF3F07047064BCD
:1032000003FB00F0704700BF0010024000127A007C
:10321000C0A50008D0A5000800093D00002800F066
:10322000A08070B50D460446524B1B6803F007039F
:103230008B420BD24F4A136823F007030B431360F2
:10324000136803F007038B4240F08D80236813F06E
:10325000020F17D013F0040F04D0474A536843F409
:10326000E0635360236813F0080F04D0424A5368A8
:1032700043F460535360404A536823F0F003A1685D
:103280000B435360236813F0010F31D06368012BA7
:1032900020D0022B25D0384A126812F0020F64D0D9
:1032A00035494A6822F0030213434B60FEF7DCFD08
:1032B0000646314B5B6803F00C036268B3EB820F88
:1032C00016D0FEF7D1FD801B41F288339842F0D929
:1032D000032045E0284A126812F4003FE0D10120A3
:1032E0003EE0254A126812F0007FD9D1012037E074
:1032F000204B1B6803F00703AB420AD91D4A136831
:1033000023F007032B431360136803F00703AB425A
:103310002DD1236813F0040F06D0174A536823F405
:10332000E063E1680B435360236813F0080F07D094
:10333000114A536823F46053216943EAC10353607F
:10334000FFF742FF0C4B5B68C3F303130B4AD35CDC
:10335000D8400B4B18600B4B1868FEF741FD00205E
:1033600070BD012070470120FAE70120F8E7012035
:10337000F6E700BF0020024000100240A8A50008A8
:10338000040000200C000020014B1868704700BFAB
:103390000400002008B5FFF7F7FF044B5B68C3F398
:1033A0000223034AD35CD84008BD00BF001002408E
:1033B000B8A5000808B5FFF7E7FF044B5B68C3F347
:1033C000C223034AD35CD84008BD00BF00100240AE
:1033D000B8A500087047000008B5064B9B6813F0BD
:1033E000800F00D108BDFFF7F5FF024B80229A72D3
:1033F000F8E700BF0010024070B582B004460368D1
:1034000013F0010F36D03F4BDB6913F0805F49D1D9
:103410003C4BDA6942F08052DA61DB6903F0805399
:103420000193019B0125384B1B6813F4807F3BD02F
:10343000344B1B6A13F4407313D0626802F4407279
:103440009A420ED02F4A136A23F440702F49012666
:10345000C1F840640026C1F84064106213F0010F07
:1034600036D1284A136A23F4407361680B43136210
:10347000002D3ED1236813F0020F06D0214A536875
:1034800023F44043A1680B435360236813F0100FEB
:1034900034D01C4A536823F48003E1680B43536023
:1034A00000202CE00025BEE7174A136843F4807320
:1034B0001360FEF7D9FC0646134B1B6813F4807F9C
:1034C000B6D1FEF7D1FC801B6428F5D9032016E0A5
:1034D000FEF7CAFC06460B4B1B6A13F0020FC0D165
:1034E000FEF7C2FC801B41F288339842F3D90320D7
:1034F00005E0D36923F08053D361BBE7002002B01D
:1035000070BD00BF00100240007000400000424249
:1035100008B502284ED0102803D0012828D000205A
:1035200008BD2B4B5A68186810F08070F8D0C2F3B1
:1035300083432849C85C12F4803F15D0244B5B6854
:10354000C3F34043244AD25C244BB3FBF2F303FBA6
:1035500000F01F4B5B6813F4800FE1D14000204B5B
:10356000A3FB00304008DBE71E4B03FB00F0F0E755
:10357000174B1B6A40F202321A40B2F5817F24D009
:1035800003F44073B3F5007F04D0B3F5407F09D056
:103590000020C5E70E4A526A12F0020FF5D049F634
:1035A0004040BDE70A4B186810F40030B8D04FF225
:1035B0002440B5E7FFF7FEFE054B5B68C3F381339C
:1035C00001335B00B0FBF3F0AAE74FF40040A7E73C
:1035D00000100240D4A50008E4A5000800127A00FB
:1035E000ABAAAAAA00093D0070B4036A026A22F0DD
:1035F000010202624668826922F073020C6844EAA2
:10360000020523F002028B6813430D4CA04209D03F
:103610000B4CA0420DD0466085614A68426303624C
:1036200070BC704723F00803CA68134323F00403F7
:10363000EEE726F440764A6932438E691643EAE79C
:10364000002C014030B4036A026A22F480720262E4
:103650004568C26922F073020C68224323F40073A8
:103660008C6843EA04230F4CA04209D00D4CA042C1
:103670000ED04560C2614A68C263036230BC7047C5
:1036800023F40063CC6843EA042323F48063EDE76A
:1036900025F440554C6945EA04158C6945EA041542
:1036A000E7E700BF002C014030B4036A026A22F44D
:1036B000805202624468C26922F4E6420D6842EA1E
:1036C000052223F400538D6843EA0533074DA842D1
:1036D00006D04460C2614A680264036230BC70472D
:1036E00024F480444D6944EA8514F2E7002C01403B
:1036F00010B4036A046A24F001040462846924F0AB
:10370000F00C4CEA021223F00A030B4382610362BD
:1037100010BC704710B4036A046A24F010040462F9
:10372000846924F4704C4CEA023223F0A00343EA8B
:1037300001138261036210BC7047836823F0700339
:103740000B4343F0070383607047000090F83D305F
:10375000DBB2012B22D1022380F83D300368114AED
:10376000934210D0B3F1804F0DD0A2F59432934222
:1037700009D002F58062934205D01A6842F0010236
:103780001A60002070479A6802F00702062A07D0E4
:103790001A6842F001021A60002070470120704749
:1037A00000207047002C01407047000003681B4A4E
:1037B00090420AD0B0F1804F07D0A2F594329042E7
:1037C00003D002F58062904203D123F070034A686F
:1037D0001343124A90420AD0B0F1804F07D0A2F5AD
:1037E0009432904203D002F58062904203D123F4D8
:1037F0004073CA68134323F080034A69134303608C
:103800008B68C3620B688362044B984202D0012329
:10381000436170470B690363F9E700BF002C014067
:1038200040B310B5044690F83D30F3B1022384F85C
:103830003D30214651F8040BFFF7B8FF012384F80F
:10384000463084F83E3084F83F3084F8403084F8C5
:10385000413084F8423084F8433084F8443084F8AE
:10386000453084F83D30002010BD80F83C30FEF734
:1038700002FADBE70120704740B310B5044690F828
:103880003D30F3B1022384F83D30214651F8040B5A
:10389000FFF78CFF012384F8463084F83E3084F82B
:1038A0003F3084F8403084F8413084F8423084F866
:1038B000433084F8443084F8453084F83D300020AB
:1038C00010BD80F83C30FFF76FFFDBE70120704749
:1038D00030B4036A026A22F010020262446882690C
:1038E00022F4E6420D6842EA052223F020038D68A7
:1038F00043EA05130E4DA84209D00D4DA8420ED043
:10390000446082614A688263036230BC704723F07E
:103910008003CD6843EA051323F04003EDE724F468
:1039200040644D6944EA85048D6944EA8504E7E70B
:10393000002C014038B590F83C30012B66D004468D
:103940000D46012380F83C300C2A5AD8DFE802F0FB
:10395000075959591B595959305959594400006848
:10396000FFF742FE2268936943F0080393612268DF
:10397000936923F0040393612268936929690B43D7
:10398000936100203EE00068FFF7A2FF2268936980
:1039900043F4006393612268936923F48063936125
:1039A00022689369296943EA01239361002029E091
:1039B0000068FFF747FE2268D36943F00803D3612C
:1039C0002268D36923F00403D3612268D36929698B
:1039D0000B43D361002015E00068FFF765FE226805
:1039E000D36943F40063D3612268D36923F480630D
:1039F000D3612268D369296943EA0123D361002096
:103A000000E00120002384F83C3038BD0220FCE7B0
:103A100010B4846824F47F4C42EA03220A4342EA49
:103A20000C02826010BC704790F83C30012B78D0BB
:103A300010B50446012380F83C30022380F83D3065
:103A40000268936823F47F4323F0770393600B6845
:103A5000602B4CD029D8402B54D00CD9502B22D1DC
:103A6000CA6849680068FFF743FE50212068FFF7E5
:103A700064FE002005E0202B0DD009D9302B0AD0A0
:103A80000120012384F83D30002384F83C3010BD30
:103A90000BB1102B05D119462068FFF74EFE002010
:103AA000EFE70120EDE70120EBE7B3F5805F34D0CD
:103AB000B3F5005F0CD1CB684A6889680068FFF7EE
:103AC000A7FF2268936843F4804393600020D8E7FF
:103AD000702B24D1CB684A6889680068FFF798FF8B
:103AE0002268936843F0770393600020C9E7CA68AF
:103AF00049680068FFF70EFE60212068FFF71DFE91
:103B00000020BEE7CA6849680068FFF7F1FD402160
:103B10002068FFF712FE0020B3E70020B1E7012084
:103B2000AFE70220704701F01F01012303FA01FCF7
:103B3000036A23EA0C030362036A02FA01F10B43EE
:103B40000362704710B50446084651BB94F83E30F6
:103B5000DBB2013B18BF0123002B5BD1002839D118
:103B6000022384F83E30012201462068FFF7DBFF84
:103B700023682A4A93423DD02368284A93423ED084
:103B8000B3F1804F3BD0A2F59432934237D002F587
:103B90008062934233D01A6842F001021A6000201A
:103BA00039E0042908D008290DD094F84130DBB25F
:103BB000013B18BF0123CFE794F83F30DBB2013B54
:103BC00018BF0123C8E794F84030DBB2013B18BFAF
:103BD0000123C1E7042805D0082807D0022384F870
:103BE0004130C0E7022384F83F30BCE7022384F869
:103BF0004030B8E75A6C42F400425A64BCE79A6815
:103C000002F00702062A07D01A6842F001021A6081
:103C1000002000E0012010BD0020FCE7002C014046
:103C200090F83C30012B2CD010B4012380F83C30AC
:103C3000022380F83D3003685A689C6822F0700CBB
:103C40000A6842EA0C025A6003680F4A93420AD09B
:103C5000B3F1804F07D0A2F59432934203D002F51E
:103C60008062934204D124F080044A6814439C602B
:103C7000012380F83D30002380F83C30184610BC0A
:103C800070470220704700BF002C0140014B1868AC
:103C9000704700BF1000002070B50D4E0D4D761B13
:103CA000B61006D0002455F8043B01349847A642CC
:103CB000F9D1094E094D06F013F8761BB61006D05F
:103CC000002455F8043B01349847A642F9D170BD51
:103CD000F0A90008F0A90008F8A90008F0A9000858
:103CE000830730B548D0541E002A3FD00346CAB2DD
:103CF00001E0013C3AD303F8012B9D07F9D1032CD5
:103D00002DD9CDB245EA05250F2C45EA054536D912
:103D1000A4F1100222F00F0C03F1200EE6444FEA4A
:103D2000121C03F1100242E9045542E90255103217
:103D30007245F8D10CF1010214F00C0F03EB0212E2
:103D400004F00F0C13D0ACF1040323F0030304338D
:103D5000134442F8045B9342FBD10CF003042CB1F2
:103D6000CAB21C4403F8012B9C42FBD130BD64460F
:103D70001346002CF4D1F9E703461446BFE71A4670
:103D8000A446E0E70CB410B51E4B00291C689CB09B
:103D900033DB4FF402734FF6FF7CADF81430029022
:103DA00006901FAB16D001391E9A04910791204648
:103DB00002A90193ADF816C000F026F8421C01DA02
:103DC0008B2323600022029B1A701CB0BDE81040B8
:103DD00002B070470491079120461E9A02A90193F0
:103DE000ADF816C000F010F8431C01DA8B232360F5
:103DF0001CB0BDE8104002B070478B234FF0FF307D
:103E00002360F5E7100000202DE9F04FD5B00C46F7
:103E10000C9191460E930A9002F0BAFE0368184680
:103E2000179303F0AFFDA3891690190603D52369F4
:103E3000002B00F08F8700242BAB224698464D467E
:103E4000CDE929442893129400230024CDE91434A9
:103E50002B78CDE91922CDE91B2218920892002B6C
:103E600000F0CE81AA4604E01AF8013F002B00F0D2
:103E70000981252BF8D1BAEB050640F007819AF8A5
:103E80000030002B00F0BC8100234FF0FF324FF0D8
:103E90002B0920241F469AF8016007920AF1010AB3
:103EA0008DF8833009930AF1010AA6F120035A2BF9
:103EB00000F22081DFE813F0CA021E011E01C502D4
:103EC0001E011E011E01A3021E011E016A00F30253
:103ED0001E014702D9021E01D4025B005B005B0099
:103EE0005B005B005B005B005B005B001E011E0172
:103EF0001E011E011E011E011E01B0011E010B024A
:103F00007A00B001B001B0011E011E011E011E01A8
:103F10009E021E011E01B6001E011E011E01190295
:103F20001E014C021E011E013F071E011E011E0143
:103F30001E011E011E011E011E01B0011E010B0209
:103F40007C00B001B001B00191027C0075001E013F
:103F500084021E017002B8005E0275001E01190283
:103F600072001C071E011E011F071E0172000022A5
:103F7000A6F130031AF8016B02EB820203EB420256
:103F8000A6F13003092BF5D909928EE70E9B53F861
:103F9000042B002A09920E93C0F2D2819AF8006095
:103FA00081E79AF8006047F020077CE747F01007A8
:103FB000BA060E9B40F17D81073323F007031A46B2
:103FC0005B6852F8084B99460E92002BC0F27F8531
:103FD000079B013301F0398054EA090327F0800B75
:103FE00000F005850A2C79F1000380F09387012306
:103FF0005F4630348DF84F410B930DF24F15079A01
:104000000B9900238A42B8BF0A4606929DF8832086
:104010000D930F9313931093002A7CD0069B0133CA
:10402000069378E047F0100717F0200900F032817E
:104030000E9B073323F00703D3F8049053F8084B83
:104040000E93002327F4806B00228DF88320079ABB
:10405000511C00F02A8254EA09012BF0800740F03D
:104060002382002A41F02B80002B40F0C5841BF0F6
:1040700001030B9300F0548530230DF24F158DF89A
:104080004F31BCE7BAEB050600F0BA802A9BC8E9BD
:10409000005633442A93299B0133072B299305DCCF
:1040A00008F10808089B33440893E8E60C990A983D
:1040B00028AA03F0C9FC80B90DF1AC08F2E70C990D
:1040C0000A9828AA03F0C0FC002800F08A800D9B03
:1040D0001BB10D990A9802F05BFC0C9B9B8913F0B5
:1040E000400F089B18BF4FF0FF330893089855B056
:1040F000BDE8F08F002E00F08380012300228DF8B0
:10410000EC6006933BAD8DF883200B930D920792E4
:104110000F921392109217F0020302D00699023107
:10412000069117F0840B07D109990698A1EB0009B5
:10413000B9F1000F00F336832A9C82B10122C8F83E
:104140000420299A013401320DF18301072A2A94AF
:104150002992C8F8001000F3698308F108087BB1C0
:104160000223C8F80430299B0234013321AA072B0B
:104170002A942993C8F8002000F36C8308F10808FA
:10418000BBF1800F00F02E82079B0B9AA3EB020B72
:10419000BBF1000F00F37182FB0500F1C5810B9BA1
:1041A000C8F800501C44C8F80430299B2A940133F5
:1041B000072B299300F3EA8208F108087B0705D54D
:1041C000099B069A9D1A002D00F35083DDE9083201
:1041D00006998A42ACBF9B185B180893002C7FF4A9
:1041E0006EAF002329930D9B1BB10D990A9802F025
:1041F000CFFB55460DF1AC082B78002B7FF432AE87
:104200002A9B002B3FF469AF0C9C0A98214628AAF0
:1042100003F01AFCA38962E70E9B073323F0070221
:10422000F2E80234CDE91434DDE9143424F000441A
:10423000994618460E9221464FF0FF32B64BFCF7D6
:10424000D1FE002840F09684484621464FF0FF32C8
:10425000B14BFCF7A9FE002840F08C84DDE9140185
:1042600000220023FCF796FE002840F0A6879DF868
:10427000832000210320A94DA94B27F080070D9131
:104280000690472EC8BF1D4607910B900F911391C2
:104290001091C1E617F0100340F0628417F040025D
:1042A00000F07B870E9A994652F8044B0E92A4B206
:1042B000C7E653F8044B0E93FB0600F141847D06DC
:1042C00040F13B8444F3C0394B4624B27DE60120E3
:1042D00000220E9B069053F8041B3BAD8DF8832003
:1042E0008DF8EC100E930B9010E74FF000090E9C28
:1042F000079B54F8045B8DF88390002D00F0EE8648
:104300005A1C00F060851A464946284602F0F8FE1D
:104310000D90002801F09E800D9B9DF883205B1B73
:104320000B9323EAE373CDF81C900E940693CDF81B
:104330003490CDF83C90CDF84C90CDF840906BE6A1
:10434000099B5B4209939AF8006047F00407AAE5CD
:1043500047F0100B1BF0200900F0AA830E9B0733D7
:1043600023F007031A4652F8084BD3F804900E9234
:10437000012369E6302278260E9B8DF8842053F8BD
:10438000044B684A0E934FF00009022347F0020BDA
:104390008DF88560189257E6BD0600F1D683FC06BD
:1043A00000F19386780600F15D87B90540F18D86AE
:1043B0000E9B089953F8042B554611700E931BE77A
:1043C0009AF800606C2E03BF9AF8016047F020074E
:1043D0000AF1010A47F0100765E59AF80060682EB7
:1043E00003BF9AF8016047F400770AF1010A47F029
:1043F000400758E59AF8006047F0080753E50A9E21
:10440000304602F0C5FB436818461B9303F0BAFA26
:10441000034630461C931E4602F0BAFB836819938C
:10442000002E3FF4BBAD199B002B3FF4B7AD199B99
:104430001B78002B3FF4B2AD9AF8006047F4806718
:1044400031E59AF8006047F001072CE59DF88330CC
:10445000002B7FF4A3AD9AF800608DF8834022E52D
:104460009AF8006047F080071DE5524612F8016B8C
:104470002A2E01F0EB81A6F13003092B924698BF5A
:10448000002201F203801AF8016B02EB820203EBB7
:104490004202A6F13003092BF5D9079205E59AF8F7
:1044A00000608DF88390FEE4BB46012B3FF49AAD8B
:1044B000022B54AD12D1189A04F00F03D35C2409D7
:1044C00044EA09744FEA191905F8013D54EA090351
:1044D000F2D154AB5B1B5F460B9390E504F00703EE
:1044E000E40844EA49744FEAD909303354EA09012F
:1044F0002A4605F8013DF1D11BF0010FE9D0302B20
:10450000E7D03023023A05F8013C54AB9B1A5F46D2
:1045100015460B9373E500BFFFFFEF7FECA5000886
:10452000F0A50008FCA50008652E40F3E980DDE950
:10453000140100220023FCF723FD002800F0D281A3
:104540000123C8F80430299BBF4A01330134072BEB
:104550002A942993C8F8002000F37A8508F1080806
:10456000229B129A934280F2D782169B179A1C4480
:10457000C8E90023299B2A940133072B299300F3D0
:10458000DD8308F10808129B5D1E002D7FF716AE33
:10459000102D41F34181DFF8B4922246494610269E
:1045A000B946299B0F46DDF828B00C9C05E008F1C0
:1045B0000808103D102D40F3588501331032072BA9
:1045C000C8E90076CDE92932F1DD2146584628AA0E
:1045D00003F03AFA00287FF47AADDDE929320DF1D3
:1045E000AC08E6E7099B069AA3EB020BBBF1000FB0
:1045F0007FF7CAADBBF1100F41F30580DFF84C9295
:1046000041462046A8464C461023299A0C9DDDF8C9
:10461000289006E0ABF1100BBBF1100F01F108017F
:1046200019DD01321030072AC1E90043CDE9292004
:10463000F0DD2946484628AA03F006FA00287FF450
:1046400046ADDDE92920ABF1100BBBF1100F4FF0A7
:1046500010032BA9E5DC4546A146884604460132F5
:104660005C44072ACDE92924C8F80090C8F804B0B2
:1046700000F3188508F1080886E5BBF1100F40F338
:104680009785DFF8C89141462046A8464C4610233E
:10469000299A0C9DDDF8289006E0ABF1100BBBF1D8
:1046A000100F01F1080119DD01321030072AC1E9AC
:1046B0000043CDE92920F0DD2946484628AA03F029
:1046C000C3F900287FF403ADDDE92920ABF1100B1D
:1046D000BBF1100F4FF010032BA9E5DC4546A146B6
:1046E0008846044601325C44072ACDE92924C8F8EB
:1046F0000090C8F804B000F3CE8108F108084BE53B
:10470000129B012B40F37E810123299E01341E441C
:10471000072EC8F800502A94C8F80430299600F3F0
:10472000E18108F10808169B0136179A1C44072EF0
:10473000C8E90023CDE9296400F3E18108F1080804
:104740000022DDE914010023FCF71AFC002840F0E8
:104750007681129B0136013B01351C44072EC8F8B7
:1047600000502996C8F804302A9400F35B8108F1C0
:1047700008081A9B01361C44C8F80430072E24ABE5
:10478000CDE92964C8F800307FF716AD0C990A9876
:1047900028AA03F059F900287FF499AC2A9C0DF15E
:1047A000AC080BE5B9F1100F40F35086DDE9292183
:1047B0004046CDE91D36B84610244F460C9EA9460A
:1047C0000A9D04E0103F102F00F1080016DD0132B1
:1047D0001F4B1031072AC0E90034CDE92921F1DD52
:1047E0003146284628AA03F02FF900287FF46FAC41
:1047F000DDE92921103F102F2BA8E8DC4D46DDE92B
:104800001D36B9464746804609EB0104013210497E
:10481000072ACDE92924C8F80490C8F8001000F34D
:10482000C3839DF8832008F1080886E40C990A9850
:1048300028AA1D9303F008F900287FF448AC2A9CAD
:104840001D9B0DF1AC088AE42CA6000840A60008C8
:1048500030A600080C990A9828AA03F0F5F8002859
:104860007FF435AC2A9C0DF1AC0889E4102D40F39F
:10487000C4861026299B0A9FDDF8309004E0103D85
:10488000102D08F1080817DD0133B84A1034072B42
:10489000C8E90026CDE92934F1DD4946384628AA81
:1048A00003F0D2F800287FF412ACDDE92934103D82
:1048B000102D0DF1AC08E7DC0133AC4A2C44072B7A
:1048C000CDE92934C8F80450C8F800207FF77EAC41
:1048D0000C990A9828AA03F0B7F800287FF4F7ABE0
:1048E0002A9C73E42299002940F36F83DDF84090FD
:1048F000129B9945A8BF9946B9F1000F0BDD299B82
:104900004C440133072BC8E900592A94299300F33A
:104910001D8508F10808109EB9F1000FA8BFA6EB8D
:104920000906002E00F32582DDF840B07805AB447F
:1049300000F15F82229B129A934202DBF90740F159
:104940007684169A17991444C8E90012299A2A9471
:104950000132072A299200F3138508F10808129AF8
:10496000AE18A6EB0B06D51AAE42A8BF2E46002EF7
:104970000DDD299B34440133072BC8F800B0C8F87B
:1049800004602A94299300F3718508F10808002E29
:10499000A8BFAD1B002D7FF711AC102D40F33C8755
:1049A000DFF8CC91224649461026B946299B0F468E
:1049B000DDF828B00C9C05E008F10808103D102D2A
:1049C00040F3538301331032072BC8E90076CDE959
:1049D0002932F1DD2146584628AA03F035F800288F
:1049E0007FF475ABDDE929320DF1AC08E6E7079BF2
:1049F000002B7FF4FCAA5F46002354AD07930B9372
:104A0000FFF7FDBAFA073FF57FAE0123299E013477
:104A10001E44072EC8F800502A94C8F8043029967E
:104A20007FF7A5AE0C990A9828AA03F00DF8002884
:104A30007FF44DABDDE929640DF1AC0899E6129BDA
:104A40005D1E002D7FF795AE102D40F3DF862246C8
:104A500007974FF0100BDFF818910A9C0C9F05E0A8
:104A600008F10808103D102D40F37F830136103205
:104A7000072EC8E9009BCDE92962F1DD39462046C1
:104A800028AA02F0E1FF00287FF421ABDDE92962CA
:104A90000DF1AC08E6E70C990A9828AA02F0D4FFB9
:104AA00000287FF414AB2A9C0DF1AC08FFF774BB0F
:104AB0001BF010030E9A3AD11BF0400133D052F88C
:104AC000044B99460E920123A4B2FFF7BDBA2D23E1
:104AD00064428DF88330BB464FF0010369EB49090E
:104AE000FFF7B5BA0C990A9828AA02F0ADFF002882
:104AF0007FF4EDAADDE929640DF1AC0813E60C9909
:104B00000A9828AA02F0A0FF00287FF4E0AADDE9B5
:104B100029640DF1AC0813E6FD077FF54FAB24E5E2
:104B200054ADFFF76CBA1BF4007940F08A8352F859
:104B3000044B01230E92FFF787BAB80500F19B835F
:104B40004FEAE4794B46FFF740BA0E9B089853F8BA
:104B5000041BC2175546C1E900020E93FFF74CBB78
:104B60000E9B53F8044B0E93FFF76BBA30A6000868
:104B700040A60008DDE9140102460B46FCF732FAB4
:104B8000002840F0E985612E00F07D85412E00F07F
:104B90008B84079B013300F08F8326F02003472B83
:104BA000069300F08F85DDE9141247F480730F93AC
:104BB0001346002BC0F2B0850B9300238B461D9348
:104BC0000D93069B462B00F0E983452B00F04685AC
:104BD00007990B9B01910221009126A9049123A919
:104BE000039122A95A460A98029100F005FF069BFC
:104BF0000546472B40F03A8617F0010FB9460F9F44
:104C000040F0FE84269B5B1B1293069B472B00F013
:104C10006E83069B462B00F0F083229B1093109B23
:104C2000069A013B412A229300F0BB850021F2B293
:104C3000002B8DF89020B6BF2D222B22109B8DF8D3
:104C40009120B8BFC3F10103092B40F39B850DF1FF
:104C50009F0C6246B64F1C46104687FB0312D917BD
:104C6000C1EBA20101EB8102A3EB42023032632CC3
:104C700000F8012C0B4600F1FF32ECDC3033811ED2
:104C8000DBB28C4502F8013C40F2F9850DF192014E
:104C900001E012F8013B944501F8013BF9D10DF117
:104CA000A1030DF192021B1A134424AA9B1A1A9312
:104CB000129B1A9A012B1A440B9240F381850B9B8D
:104CC000169A13440B9300230B9A29F4806722EA67
:104CD000E27247F480770F930692139310931D9B13
:104CE000002B40F02C839DF883200793FFF794B9A5
:104CF000BB46FFF72FBB8F4B189317F0200900F02E
:104D0000F5800E9B073323F00703D3F8049053F884
:104D1000084B0E93F80709D554EA090306D030234F
:104D20008DF8856047F002078DF88430022327F460
:104D3000806BFFF789B9804B1893DEE70C990A98CE
:104D400028AA02F081FE00287FF4C1A92A9C0DF157
:104D5000AC0818E440210A9801F026FF0C9B18606B
:104D60001861002800F0978540230C9A5361FFF7E3
:104D700062B8102E40F37685DFF8C091424648466F
:104D80002146A846B9464FF0100B0746299B0A9CBE
:104D90000C9D04E00832103E102E40F313820133C4
:104DA0001031072BC2E9007BCDE92931F2DD29461C
:104DB000204628AA02F048FE00287FF488A9DDE9F1
:104DC00029312BAAE7E72846CDF81C900E9402F073
:104DD000D9FD20EAE0739DF883200B90CDF8349044
:104DE000CDF83C90CDF84C90CDF840900693FFF76D
:104DF00013B9129B4246DDF84C80EB185E460793D0
:104E0000CDF82CA010972146199FDDF87090DDF8A1
:104E100028A0DDF830B00F9B1395B8F1000F2ED00D
:104E200083BB013F08F1FF381B9B4944C2E90039AD
:104E3000299B2A910133072B299360DC0832079BB9
:104E400038789B1B8342A8BF0346002B1C460BDD12
:104E50002998194401300728C2E900632A91299052
:104E600000F3148138780832002CB4BF0546051BC6
:104E7000002D0BDC06440F9BB8F1000FD0D1002BA6
:104E800000F026820F9B013B0F93CDE7102D40F3DE
:104E90009D841024299804E0103D102D02F1080291
:104EA00016DD0130254B10310728C2E90034CDE969
:104EB0002901F1DD5946504628AA02F0C5FD002817
:104EC0007FF405A9DDE92901103D102D2BAAE8DCAE
:104ED00001301A4B29440728CDE929015560136098
:104EE00000F34182387808320644C4E717F0100313
:104EF00000F0A0800E9B53F8044B0E930AE759462E
:104F0000504628AA02F0A0FD00287FF4E0A82A99C4
:104F10002BAA94E700230BF480620696CDF82CA010
:104F2000CDF8348092461E46DDF8648054AF14E01C
:104F300067666666FCA5000810A6000840A6000883
:104F40000023204649460A22FCF78AF80A2C79F108
:104F500000031BD3044689462F4620460A2200231D
:104F60004946FCF77DF830327D1E013607F8012CEA
:104F7000BAF1000FE4D098F800309E42E0D1FF2E45
:104F8000DED00A2C79F1000380F0308154AB5B1B3A
:104F9000DDF82CA0CDF8648012965F46069EDDF801
:104FA00034800B93FFF72BB80C990A9828AA1D930D
:104FB00002F04AFD00287FF48AA89DF883202A9CED
:104FC0001D9B0DF1AC08FFF7B8B80123C8F80430F9
:104FD000299BBC4A01330134072B2A942993C8F832
:104FE000002000F3178108F10808002940F08680AE
:104FF000129A07F0010313433FF4E0A8169B179998
:105000001A19C8E90013299B2A920133072B299307
:1050100000F3378108F10808129901338C18072B27
:10502000CDE92934C8F80050C8F804107FF7C4A8A7
:10503000FFF7ACBB17F0400200F0A5800E9A99462E
:1050400052F8044B0E92A4B264E6BB46FEF7CABF08
:105050000C990A9828AA02F0F7FC00287FF437A8D8
:105060002A9C0DF1AC08FFF77BBA14463A464F462E
:10507000914601332C44072BC8F80090C8F804501F
:10508000CDE929347FF798A8FFF780BB59465046F1
:1050900028AA02F0D9FC00287FF419A838782A99A8
:1050A0002BAAE1E60C990A9828AA02F0CDFC002868
:1050B0007FF40DA82A9C0DF1AC08FFF765B8012B11
:1050C000BB467FF4F5A9FEF792BF0E9B089953F8F3
:1050D000042B554611600E93FFF78EB8062B294618
:1050E00028BF06232A4607950D950693764D0E9404
:1050F0000B930F9113911091FEF78EBF169B17988B
:105100001A19C8E90003299B2A920133072B299316
:1051100000F3B78008F108080029BFF67DAF4E42C2
:10512000103180F2A98341461024A846DFF89C91F3
:10513000DDF828B00C9D04E00831103E102E40F33D
:10514000A78201331032072BC1E90094CDE929323F
:10515000F2DD2946584628AA02F076FC00287EF4A3
:10516000B6AFDDE929322BA9E7E71446079F0136E0
:105170002C44072ECDE92964C8F80090C8F80450E3
:105180007FF7F5AA4EE417F400790E9B66D053F82A
:10519000044B91460E93E4B2BCE517F400790E9BE4
:1051A00057D053F8044B91460E93E4B2FEF749BF33
:1051B000299ADFF81891FFF795BA2D228DF88320F0
:1051C000FFF757B8454690463A460C464F4691463B
:1051D00001333444072BCDE92934C8F80090C8F8CE
:1051E00004605CDC08F10808FFF79EBB1C9B1B9960
:1051F000ED1A1A46284602F0F3FB98F801300BB17D
:1052000008F10108204649460A2200230026FBF740
:1052100027FF9FE60C990A9828AA02F015FC00289F
:105220007EF455AF22992A9C0DF1AC08DDE6129A66
:10523000AE18A6EB0B06D51AAE42A8BF2E46FFF756
:10524000A6BB52F8044B894601230E92E4B2FEF746
:10525000FBBE53F8044B0E93FEF7F3BE53F8044B1A
:105260000E9357E50E9B089953F8042B5546118071
:105270000E93FEF7C1BF44F3C0194B4664B2FEF76C
:10528000A4BE0C990A9828AA02F0DEFB00287EF43E
:105290001EAFDDE9293222990DF1AC083CE70C99EB
:1052A0000A9828AA02F0D0FB00287EF410AF2A9CAE
:1052B0000DF1AC08FFF738BB0623079326F0200357
:1052C000069370E42CA6000824A6000840A6000857
:1052D000DDE91235EB189E42B346199790460C460D
:1052E00028BF9B46DDF82CA0109FFFF723BB229B15
:1052F000DA1C109302DB079A934204DD023E26F08B
:10530000200306938BE4109B129A9342C0F2C28052
:1053100019F0010F00F01D82169A13440B9319F433
:10532000806F00F01482109B6726002B76DC0B9BAD
:1053300023EAE373069300230F931393CFE42D2204
:1053400000238DF883200793FEF768BE0C990A9816
:1053500028AA02F079FB00287EF4B9AE2A9C0DF150
:10536000AC08FFF7D8BA5946504628AA02F06CFBA1
:1053700000287EF4ACAE38782A992BAA06447AE548
:105380000C990A9828AA02F05FFB00287EF49FAED1
:10539000229B2A9C0DF1AC08FFF7E1BA07990B9B01
:1053A00001910321009126A9049123A9039122A927
:1053B0005A460A98029100F01FFB03780546302BED
:1053C00000F01682229B079AB94613440F9FEC18EF
:1053D0005846002200230B99FBF7D2FD08B1234663
:1053E00011E4269BA342BFF40EAC30215A1C269236
:1053F0001970269B9C42F9D805E4229A002A109243
:1054000040F30E82079909F001030B4340F07E81BF
:105410006626109B0B9319F4806F88D019990B782E
:10542000FF2B00F025820024109A204604E0013072
:105430000131FF2B00F05981934280F25681D21A3C
:105440004B78002BF3D10B780134F2E7DDE9292109
:10545000FFF7DAB9079B9DF883200E9406930B9310
:1054600007900F9013901090FEF7D6BD0C990A98F4
:1054700028AA02F0E9FA00287EF429AE229D129BA8
:105480002A9C0DF1AC085D1BFFF781BA002307933E
:10549000FEF70BBD129B169A9A18109B0B92002BCD
:1054A00040F385816726B6E730238DF88430582392
:1054B0008DF88530079B47F00204632B00F3C4800E
:1054C00000233BAD0D9347F481730F93DDE9141274
:1054D0001346002B2746C0F284800B9300238B4693
:1054E0001D9326F020030693612E00F01881412EB3
:1054F0007FF467AB22AA58460B9902F0F9F9002213
:105500004FF07F53FBF7D4FA02460B46CDE9102348
:1055100000220023FBF734FD08B101232293AD4B99
:105520000B93079BCDE912A6CDE91E78DDE9106744
:10553000AB46DDF82CA003F1FF39109506E0002200
:10554000002309F1FF39FBF71BFDE8B90022A24B4C
:1055500030463946FBF7ACFA0F460646FBF758FDD6
:105560000446FAF747FF0B46024639463046FAF73B
:10557000F3FD1AF80430B9F1FF3FD8464D46064610
:105580000F460BF8013BDAD1304639460022934BE7
:10559000A946DDF848A0109DCDF84880CDE910015E
:1055A000DDF87C80139E1E9FFBF712FD80BBDDE9BA
:1055B00010010022894BFBF7E3FC08B1E10727D477
:1055C0004B46002B06DB302201335B440BF8012BEA
:1055D0005B45FBD1ABEB0503B94612930F9FFFF779
:1055E00014BB26F0200306932D22DDE914349B46DC
:1055F00004F100431D920B9376E7299BFFF75CB9FA
:10560000079BEC18E4E6299ADFF8D491FFF727B856
:10561000129B26930B9B1BF8012CD97B5B468A427D
:1056200009D1302003F8010C269B5A1E269213F84C
:10563000012C9142F6D0392A0BBF0B9A0132927A93
:10564000D2B203F8012CC5E70A98591C01F0ACFA54
:105650000546002800F017810D9034E702210091E3
:1056600007995A464C1C26A9049123A9039122A903
:105670000B9B0A980194029100F0BEF90546B946C9
:105680002C440F9FA4E630238DF8843078230FE755
:105690004546884601333244072BCDE92932C8F804
:1056A0000090C8F804607FF7B5AC0C990A9828AA56
:1056B00002F0CAF900287EF40AADDDE929320DF1C5
:1056C000AC08A9E4079B002B08BF0123079347F40C
:1056D00080730F93159B002BC0F2B680DDF850B09D
:1056E0000D900B931D90FFF773BA199110921390C0
:1056F0000F940F9A139B1C9913440B9A01FB0323DD
:105700000B9323EAE3730693FFF7E9BA169B662629
:10571000D31819440B917EE600230D9364E722AA67
:1057200058460B9902F0E4F800224FF07F53FBF744
:10573000BFF902460B46CDE9102300220023FBF7F8
:105740001FFC08B101232293264B0B93E9E6672641
:10575000EDE5109B0B93E2E5159B0320002BB8BFF2
:105760002D224FF00003A8BF9DF8832019460D930A
:105770001D4D1E4BB8BF8DF8832027F08007069083
:10578000FEF77FBD002944D130228DF892200DF123
:105790009302303302F8013B24ABD31A1A93FFF77C
:1057A00087BA06F10F020121D2B2FFF741BAC3F165
:1057B00001031A4422EAE27367260B920693BAE5C4
:1057C00019F0010F3FF47FAAFFF779BA2998FFF784
:1057D0007FBB00BF10A60008000030400000E03F83
:1057E00040A60008FCA50008F4A50008F8A50008DC
:1057F0005846002200230B99FBF7C2FB00287FF4D8
:10580000E1AD079BC3F101032293DCE5DFF898903B
:10581000ADE40DF19202BCE7299BDFF88C9028E4FF
:10582000079A09F0010959EA020304D10123662607
:1058300006930B937FE5169B662601331A4422EAF2
:10584000E2730B92069376E50D90CDE60E9B9AF8E7
:105850000160924653F8042B0E9342EAE2730793D9
:10586000FEF721BB299BDFF84090B1E4079C06E7D7
:1058700000230F9313933CE7DFF82C900AE70223F1
:105880001A93FFF715BA0C998B8943F0400213461F
:105890008A81FEF724BC4FF0FF320C2308920A9A4B
:1058A0001360FEF723BC00BF40A60008024B13B1F3
:1058B000024800F005B8704700000000C568000805
:1058C000002301461A46184602F03CB92DE9F04F74
:1058D00003690C6985B0A342C0F28980013C01F1E3
:1058E0001405A30000F11408019355F8243058F86A
:1058F000242001338A469A4208EB84018146B2FB98
:10590000F3F605EB840702913AD30021AE464046F8
:105910000A46A34603955EF8045B0468ABB206FB37
:1059200003132D0C190C06FB05119BB2D21A1FFA9A
:1059300084FC94448AB2C2EB144202EB2C421FFA5C
:105940008CFC4CEA0243774540F8043B4FEA114196
:105950004FEA2242DFD2019B5C4658F80330039D98
:1059600073B9029B043B984504D307E0984504F1C2
:10597000FF3403D253F80429002AF7D0C9F81040A5
:105980005146484601F08CFE00282CDB404600239F
:10599000013655F8041BD0F800C08AB29A1A1FFAD3
:1059A0008CFE0B0C7244C3EB1C4303EB224392B2FC
:1059B00042EA0342AF4240F8042B4FEA2343E8D2C5
:1059C00058F8242008EB84036AB9043B984504D3B3
:1059D00007E0984504F1FF3403D253F80429002A64
:1059E000F7D0C9F81040304605B0BDE8F08F002070
:1059F00005B0BDE8F08F00BF2DE9F04F9046994605
:105A0000016C99B00446CDE90489259D41B101237B
:105A1000426C93408B604A6001F0ECFB00232364EE
:105A2000B9F1000AB4BF012300232B60764BBCBF41
:105A30002AF0004ACDF814A033EA0A0300F0AA8045
:105A4000DDE904231046194600220023CDE90A01AE
:105A5000FBF796FA074670B10123249A1360269B40
:105A6000002B00F0E68269481860431E03930398F8
:105A700019B0BDE8F08F16AB019317AB0093204629
:105A8000DDE90A2301F0D2FE5FEA1A56054640F02E
:105A90009780DDE916763E4406F23240202840F336
:105AA000B783C0F140000AFA00FA06F2124028FA61
:105AB00000F04AEA0000FAF78DFC0123013E0F9343
:105AC000A1F1F8710022524BFAF746FB48A3D3E943
:105AD0000023FAF7EDFF48A3D3E90023FAF73EFBD2
